:020000040800F2
:1000000038350120E1070008890400088B04000846
:100010008F04000893040008970400080000000003
:100020000000000000000000000000003102000895
:100030009B040008000000008D020008154B00081A
:10004000FB070008FB070008FB070008FB07000888
:10005000FB070008FB070008FB070008FB07000878
:10006000FB070008FB070008FB070008FB07000868
:10007000FB070008FB070008FB070008FB07000858
:10008000FB070008FB070008FB070008FB07000848
:10009000FB070008FB070008FB070008FB07000838
:1000A000FB070008FB070008FB070008FB07000828
:1000B000FB070008FB070008FB070008FB07000818
:1000C000FB070008FB070008FB070008FB07000808
:1000D000FB07000811170008FB070008FB070008D2
:1000E000FB070008FB070008FB070008FB070008E8
:1000F000FB070008FB070008FB070008FB070008D8
:10010000FB070008FB070008FB070008FB070008C7
:10011000FB070008FB070008FB070008FB070008B7
:10012000FB070008FB070008FB070008FB070008A7
:10013000FB070008FB070008FB070008FB07000897
:10014000FB070008FB070008FB070008FB07000887
:10015000FB070008FB070008FB070008FB07000877
:10016000FB070008FB070008FB070008FB07000867
:10017000FB070008FB070008FB070008FB07000857
:10018000FB070008FB07000800F002F800F041F848
:100190000AA090E8000C82448344AAF10107DA45E2
:1001A00001D100F036F8AFF2090EBAE80F0013F0F3
:1001B000010F18BFFB1A43F0010318477C4D0000E4
:1001C0009C4D0000103A24BF78C878C1FAD8520775
:1001D00024BF30C830C144BF04680C6070470000C1
:1001E0000023002400250026103A28BF78C1FBD840
:1001F000520728BF30C148BF0B607047732904F015
:10020000DE85002070471FB504F090FE1FBD10B5BD
:1002100010BD04F05BFE1146FFF7F5FF00F0D0F8CB
:1002200004F079FE03B4FFF7F2FF03BC01F00AFA11
:100230002C4B19680868B0E8F04F80F30988BFF3C9
:100240006F8F4FF0000080F31188704700000000AE
:1002500008480068006880F308884FF0000080F3C9
:10026000148862B661B6BFF34F8FBFF36F8F00DFA4
:1002700000BF00BF08ED00E0DFF80C00016841F4AA
:1002800070010160704700BF88ED00E0EFF3098066
:10029000BFF36F8F134B1A681EF0100F08BF20EDCD
:1002A000108A20E9F04F106009B44FF0500080F33D
:1002B0001188BFF34F8FBFF36F8F02F0BAFE4FF07C
:1002C000000080F3118809BC19680868B0E8F04F95
:1002D0001EF0100F08BFB0EC108A80F30988BFF33E
:1002E0006F8F704768000020EFF3058070470000B3
:1002F00008B510E0002000F015FA00909DF800000D
:1003000030B100235A1E69464D48006801F0A6FB33
:100310000A2002F05EFDEDE71CB514E049480068D4
:1003200002F020F960B1002269464648006801F0F9
:10033000F2FE0446012C03D1694643A004F04CFCB4
:10034000012002F046FDE9E708B538E03C480068C6
:1003500002F008F980B3002269463948006801F0CC
:10036000DAFE0446012C27D19DF80000012804D0B4
:1003700002280BD003281DD113E03548006808B9C6
:10038000012000E000203249086014E03048001DE0
:10039000006808B9012000E000202D49091D08600F
:1003A00009E000231A462B492648006801F056FB55
:1003B000044600E000BF00BF012002F00AFDC5E7CF
:1003C0001CB54FF4E13001F04CF94FF4407000F0EF
:1003D00027FA00F06BF900F087F91F48022100238B
:1003E0008022CDE900101DA1AFF2A30002F06DFA4A
:1003F0001D48012100238022CDE900101BA1AFF28E
:10040000E70002F062FA1C48032100238022CDE9B4
:1004100000101AA1AFF2271002F057FA00220121B2
:10042000022001F063FA0649086000221E21022022
:1004300001F05CFA0349086002F084FF00BFFEE7A8
:100440001000002014000020422025730D0A000037
:100450009802404218000020080000204C45445FEC
:100460005441534B0000000004000020537461729B
:10047000745F5441534B00000C0000204B65795FC2
:100480005441534B00000000704700BFFEE700BF1F
:10049000FEE700BFFEE700BFFEE770470CB5002097
:1004A000019000907648006840F4803074490860FC
:1004B00000BF7348006800F4003000900198401CB1
:1004C0000190009818B90198B0F5A04FF1D16C488F
:1004D000006800F4003010B10120009001E000201D
:1004E00000900098012846D165484030006840F0EF
:1004F00080506349403108606248006840F44040E1
:10050000604908605E48083000685D49083108604D
:100510000846006840F4004008600846006840F45F
:10052000A05008605848091F0860081F006840F084
:100530008070091F086000BF5148006800F000701B
:100540000028F9D040F20570504908604C48083046
:10055000006820F003004A49083108600846006836
:1005600040F00200086000BF45480830006800F015
:100570000C000828F8D10CBD10B54548006840F4BF
:100580007000434908603E48006840F001003C4963
:10059000086000203A4908310860394800683D4940
:1005A0000840374908603C48091D0860081F00687A
:1005B00020F48020091F0860002031490C310860B8
:1005C000FFF76CFF4FF0006031498039086010BDC3
:1005D00070B500200022022300240221284D083596
:1005E0002D6805F00C0020B1042806D0082834D16D
:1005F00007E02A4D2A4E356033E02A4D284E3560FB
:100600002FE01F4D2D1D2D68C5F380541C4D2D1D51
:100610002D6805F03F0154B1224DB5FBF1F5184EA0
:10062000361D3668C6F3881605FB06F209E01B4D39
:10063000B5FBF1F5124E361D3668C6F3881605FB7C
:1006400006F20F4D2D1D2D68C5F301456D1C6B0085
:10065000B2FBF3F5124E356003E0104D104E3560DD
:1006600000BF00BF064D08352D68C5F303150E4EBB
:10067000705D0B4D2D68C540094E356070BD0000A2
:10068000003802400070004008544007003C02401F
:1006900088ED00E0FFFFF6FE103000240024F40097
:1006A0003800002000127A003C0000201CB5012117
:1006B000084600F049FCC020009001208DF804009D
:1006C00000208DF8060003208DF8050001208DF82C
:1006D00007006946034800F099F9C021014800F07D
:1006E00011FA1CBD000002401CB50121112000F0D0
:1006F0002BFC1820009000208DF8040003208DF8BA
:10070000050001208DF807006946324800F07EF9A7
:100710000120009002208DF8070069462E4800F065
:1007200075F91CBD10B5044614B101202B490870A1
:100730002A48007840B31021264800F0C9F950B18A
:100740000821244800F0C4F928B10121224800F012
:10075000BFF9012818D100202049087010211D4838
:1007600000F0B6F908B9012010BD0821194800F0C1
:10077000AFF908B90220F7E70121174800F0A8F9FE
:10078000012815D10320EFE71021124800F0A0F94D
:1007900001280DD108210F4800F09AF9012807D14E
:1007A00001210D4800F094F910B901200B4908709F
:1007B0000020D9E7014607E04FF6FF7002E080B263
:1007C000421E90B20028FADC0A00A1F1010399B29E
:1007D000F2D1704700100240000002404C0000209F
:1007E0000948804709480047FEE7FEE7FEE7FEE7C5
:1007F000FEE7FEE7FEE7FEE7FEE7FEE70448054901
:10080000054A064B70470000790500088901000879
:10081000382F0120383501203831012038310120AE
:1008200032490143324A1160704770B500210023FC
:100830000F22C4781CB32E4C246804F4E064C4F581
:10084000E064C4F30721C1F10404E3B20A4144782F
:100850009C40E1B28478144021430C07210E254CC2
:1008600005786155047804F01F050124AC40057833
:100870006D11AD0005F1E025C5F8004109E00478EF
:1008800004F01F050124AC401B4D0678761145F895
:10089000264070BD194A0A400243154B1B1F1A60BF
:1008A000704739B1124A121D12680243104B1B1DCA
:1008B0001A6006E00E4A121D126882430C4B1B1D83
:1008C0001A607047042808D14FF0E021096941F00F
:1008D00004014FF0E022116107E04FF0E0210969C7
:1008E00021F004014FF0E022116170470000FA0589
:1008F0000CED00E000E400E080E100E080FFFF1F7D
:1009000010B504469848844208D10121084600F0F9
:1009100086FB0021012000F082FB76E093488442B0
:1009200008D10121022000F07AFB0021022000F012
:1009300076FB6AE08E48844208D10121042000F051
:100940006EFB0021042000F06AFB5EE089488442CF
:1009500008D10121082000F062FB0021082000F0EE
:100960005EFB52E08448844208D10121102000F04F
:1009700056FB0021102000F052FB46E07F488442E5
:1009800008D10121202000F04AFB0021202000F0A6
:1009900046FB3AE07A48844208D10121402000F029
:1009A0003EFB0021402000F03AFB2EE075488442D7
:1009B00008D10121802000F032FB0021802000F0CE
:1009C0002EFB22E07048844208D10121801500F0FE
:1009D00026FB0021A01500F022FB16E06B488442A4
:1009E00008D10121401500F01AFB0021601500F02C
:1009F00016FB0AE06648844207D10121001500F089
:100A00000EFB0021201500F00AFB10BDF0B50A46D0
:100A100000210023002400BF3DE0012505FA01F379
:100A2000156805EA03049C4234D105684F0003268B
:100A3000BE40B543056015794E00B54006683543A4
:100A400005601579012D02D01579022D16D1856822
:100A50004F000326BE40B543856055794E00B54032
:100A6000866835438560456801268E40B5434560FC
:100A7000456896798E40B6B235434560C5684F00EB
:100A80000326BE40B543C560D5794E00B540C66863
:100A90003543C560491C1029BFD3F0BD4FF6FF7127
:100AA00001600021017141718171C171704708B508
:100AB0004FF480320092009A0A430092009AC26179
:100AC000C161009AC261C2690092C269009208BD08
:100AD0000246002013690B400BB1012000E000200A
:100AE00070470146086980B270470246002053698A
:100AF0000B400BB1012000E000207047014648691F
:100B000080B2704701837047418370470AB1018307
:100B100000E0418370474161704742694A40426149
:100B20007047F0B5002300244D07ED0E02FA05F3DF
:100B3000CE1000F1200555F826504E07F70E0F266F
:100B4000BE40B543CF1000F1200646F82750CE1026
:100B500000F1200555F8265045EA0304CE1000F1B7
:100B6000200545F82640F0BD000002400004024088
:100B700000080240000C0240001002400014024035
:100B800000180240001C02400020024000240240E5
:100B900000280240F948006840F00100F749086069
:100BA0000020F64908310860F4480068F44908401C
:100BB000F2490860F348091D0860F348EF498431A1
:100BC0000860F0481038091D0860EC48006820F4FF
:100BD0008020EA4908600020E8490C310860E749B4
:100BE0008C31086070470021E44A921C1170114654
:100BF0000870704710B501460022002300204A11FA
:100C0000012A02D1DD4C236808E0022A03D1DB4C23
:100C10007034236802E0D94C7434236801F01F0259
:100C2000012494401C400CB1012000E0002010BDC4
:100C300038B5002000900024002500BF3120FFF7C8
:100C4000D9FF05460098401C00900098B0F5A04FD1
:100C500001D0002DF2D03120FFF7CCFF08B10124E4
:100C600000E00024204638BD01460020C34A106839
:100C700020F0F80040EAC10010607047C3490860E6
:100C800070470021BD4A703211701170012802D0E6
:100C900004280AD104E00121B84A7032117005E03D
:100CA0000521B64A7032117000E000BF00BF7047E6
:100CB000B7490860704770B5049C41EA8215012667
:100CC000C6EB530645EA0645054345EA0465AB4EC7
:100CD000361D356070BDAD4908667047820142EA35
:100CE0000172A64B84331A607047A8498866704722
:100CF00010B5830143EA016343EA02739F4C8834D1
:100D0000236010BDA14908677047A049C8647047B7
:100D100002460020994B0833186820F0EC6042EA44
:100D200001031843954B08331860704702460020B2
:100D3000924B0833186820F0784042EA01031843C8
:100D40008E4B083318607047014600208B4A0832EA
:100D5000106820F00300084310607047874808308F
:100D6000006800F00C00704701460020834A0832FA
:100D7000106820F0F0000843106070470146002022
:100D80007E4A0832106820F4E05008431060704733
:100D900001460020794A0832106820F4604040EA99
:100DA000C10010607047F0B5002100220024022528
:100DB00000260223714F08373F6807F00C0121B16C
:100DC000042905D0082937D105E0724F076036E0C5
:100DD000714F076033E0694F3F1D3F68C7F380568E
:100DE000664F3F1D3F6807F03F036EB16A4FB7FB88
:100DF000F3F7DFF888C10CF1040CDCF800C0CCF389
:100E0000881C07FB0CF40CE0624FB7FBF3F7DFF82C
:100E10006CC10CF1040CDCF800C0CCF3881C07FB9F
:100E20000CF4564F3F1D3F68C7F301477F1C7D0000
:100E3000B4FBF5F7076002E0564F076000BF00BF44
:100E40004E4F08373F6807F0F0010909534F7A5CAD
:100E50000768D7404760494F08373F6807F4E051BB
:100E6000890A4E4F7A5C4768D7408760434F0837FE
:100E70003F6807F46041490B484F7A5C4768D740A8
:100E8000C760F0BD002100F44072B2F5407F0AD186
:100E90003A4A0832116821F4F811414A02401143DC
:100EA000364A08321160354A70321268C0F30B03BB
:100EB0001A43324B70331A60704735494439086021
:100EC00070473349403908607047364908607047B9
:100ED00001460020294A8C32106820F01F004A1E6B
:100EE0001043264A8C321060704701460020234A86
:100EF0008C32106820F4F8504A1E40EA02201F4A43
:100F00008C3210607047014600201C4A8C321068F9
:100F100020F4401008431060704701460020174A33
:100F20008C32106820F4400008431060704701467E
:100F30000020124A8C32106820F4403008431060C0
:100F4000704719490860704739B10C4A303212684D
:100F500002430A4B30331A6006E0084A3032126806
:100F60008243064B30331A607047F9B1034A34327A
:100F700012680243014B34331A601CE0003802400F
:100F8000FFFFF6EA10300024003000200000474246
:100F9000800E47420024F40000127A004D00002029
:100FA000FFFCFF0F5C014742E01147428F4A126885
:100FB00082438E4B1A60704739B18C4A121D1268F9
:100FC00002438A4B1B1D1A6006E0884A121D1268F4
:100FD0008243864B1B1D1A60704739B1834A0C321D
:100FE00012680243814B0C331A6006E07F4A0C32D0
:100FF000126882437D4B0C331A60704739B17B4ACB
:10100000103212680243794B10331A6006E0774AB7
:10101000103212688243754B10331A60704739B131
:10102000724A243A12680243704B243B1A6006E06D
:101030006E4A243A126882436C4B243B1A60704714
:1010400039B16A4A203A12680243684B203B1A6061
:1010500006E0664A203A12688243644B203B1A60DD
:10106000704739B1614A1C3A126802435F4B1C3B1E
:101070001A6006E05D4A1C3A126882435B4B1C3BD7
:101080001A60704739B1594A143A12680243574BF3
:10109000143B1A6006E0554A143A12688243534BD7
:1010A000143B1A60704739B1504A103A1268024333
:1010B0004E4B103B1A6006E04C4A103A12688243CD
:1010C0004A4B103B1A60704739B1484A1C321268CB
:1010D0000243464B1C331A6006E0444A1C32126835
:1010E0008243424B1C331A60704739B13F4A203269
:1010F000126802433D4B20331A6006E03B4A20321F
:1011000012688243394B20331A60704739B1374A2D
:10111000243212680243354B24331A6006E0334A06
:10112000243212688243314B24331A60704739B13C
:101130002E4A2C32126802432C4B2C331A6006E0E4
:101140002A4A2C3212688243284B2C331A6070478B
:1011500039B1264A303212680243244B30331A60C8
:1011600006E0224A303212688243204B30331A6044
:101170007047012808D11D493C31096841F0080138
:101180001A4A3C32116007E018493C31096821F0E5
:101190000801164A3C321160704739B1134A273AA8
:1011A00012780243114B273B1A7006E00F4A273A88
:1011B000127882430D4B273B1A7070470B48403022
:1011C000006840F08070094940310860704701466E
:1011D0000020064A283A12680A400AB1012000E0BD
:1011E00000207047014926390870704734380240A2
:1011F00010B50446FA48844208D101211020FFF7B7
:1012000052FF00211020FFF74EFF57E0F5488442BF
:1012100009D101214804FFF735FF00214FF40030C8
:10122000FFF730FF4AE0F048844209D101218804E9
:10123000FFF728FF00214FF48020FFF723FF3DE058
:10124000EA48844209D10121C804FFF71BFF0021AD
:101250004FF40020FFF716FF30E0E548844209D143
:1012600001210805FFF70EFF00214FF48010FFF762
:1012700009FF23E0DF48844208D101212020FFF745
:1012800012FF00212020FFF70EFF17E0DA4884420A
:1012900009D101218807FFF7F5FE00214FF08040BA
:1012A000FFF7F0FE0AE0D548844207D1012140054E
:1012B000FFF7E8FE00216005FFF7E4FE10BD2DE911
:1012C000FF4705460E460024A14600BFA046B08950
:1012D00000B100BF2C8A24F44054F08804432C82CF
:1012E000AC8941F20C608443B0883189084371892C
:1012F00008430443AC81AC8A24F44074B0890443AD
:10130000AC826846FFF74FFDB548854202D0B94828
:10131000854202D1DDF80C9001E0DDF80890A88943
:1013200000F4004040B109EBC90000EB091031683E
:101330004900B0FBF1F707E009EBC90000EB091029
:1013400031688900B0FBF1F76420B7FBF0F00401CD
:101350002009642101FB1078A88900F4004040B105
:10136000322000EBC800B0FBF1F000F007000443AE
:1013700008E0322000EB08106421B0FBF1F000F02F
:101380000F0004432C81BDE8FF874FF41651016024
:1013900000218180C18001810C2141810021818156
:1013A000704710B502460020108A20F470600B8848
:1013B0004C8823438C882343CC88234318431082D2
:1013C00010BD0021018041808180C180704721B122
:1013D000828942F40052828104E082894DF6FF73D3
:1013E0001A4082817047028B02F47F420283028B93
:1013F0000A430283704721B1828942F4004282810C
:1014000003E08289C2F30E028281704721B1828A91
:1014100042F40062828204E0828A4FF2FF731A4033
:1014200082827047C1F30802828070470146888833
:10143000C0F308007047028A4FF6F0731A40028228
:10144000028A0A430282704721B1828942F0020275
:10145000828104E082894FF6FD731A4082817047D1
:1014600082894FF2FF731A40828182890A43828106
:101470007047028A4FF6DF731A400282028A0A43DB
:101480000282704721B1028A42F48042028204E063
:10149000028A4BF6FF731A4002827047818941F03D
:1014A00001018181704721B1828A42F00802828263
:1014B00004E0828A4FF6F7731A4082827047028BEB
:1014C000D2B20283028B42EA01220283704721B129
:1014D000828A42F02002828204E0828A4FF6DF7321
:1014E0001A408282704721B1828A42F010028282C1
:1014F00004E0828A4FF6EF731A4082827047828A34
:101500004FF6FB731A408282828A0A4382827047B6
:1015100021B1828A42F00202828204E0828A4FF67E
:10152000FD731A40828270471AB1838A0B4383820B
:1015300002E0838A8B4383827047F0B50346002420
:1015400000260025002040F66A17B94200D100BFEE
:101550001846C1F3421401F01F06012707FA06F5E9
:10156000012C01D10C3004E0022C01D1103000E03C
:1015700014301AB107682F43076002E00768AF43D1
:101580000760F0BD02460020B1F5007F00D100BF2A
:1015900013880B400BB1012000E00020704701F4DC
:1015A0000072B2F5007F00D100BFCA4302807047CD
:1015B00070B50246002400230025002040F66A167C
:1015C000B14200D100BFC1F3421501F01F03012653
:1015D00006FA03F3012D13D19689334017E000007A
:1015E000001001400044004000480040004C004012
:1015F000005000400014014000780040007C004092
:10160000022D02D1168A334001E0968A33400C1233
:10161000012606FA04F41688344013B10CB10120F7
:1016200000E0002070BD10B50022002340F66A14CF
:10163000A14200D100BF0A1201249440A3B2DC43AE
:10164000048010BD014600BF0020704700BF4F4A14
:10165000128802F04002002AF9D0C2B24B4B9A80A5
:10166000704710B588B0044601210846FFF76CFCAE
:1016700001211020FFF7C2FC072209214448FFF78F
:1016800050FA07220A214248FFF74BFA4FF4C06094
:10169000069002208DF81C008DF81D0000208DF8AA
:1016A0001E0001208DF81F0006A93948FFF7AEF98A
:1016B00002944FF48050ADF80C000020ADF80E00FD
:1016C0004FF48060ADF810000020ADF814000C203D
:1016D000ADF8120002A92D48FFF7F1FD01212B48BA
:1016E000FFF775FE012240F225512848FFF725FF3C
:1016F00025208DF8040003208DF805008DF80600E4
:1017000001208DF8070001A8FFF78FF808B010BD81
:1017100010B540F225511D48FFF74AFF10B31B4892
:10172000FFF784FEC4B21B48008800F40040C8B92B
:101730001848008800F4804060B10A2C03D00020D3
:101740001449088020E01348008840F40040114903
:10175000088019E00D2C06D10E48008840F4804026
:101760000C49088010E00B480088C0F30D000A49BE
:101770000C5408480088401C064908800846008828
:10178000C72801DD0020088010BD000000100140C6
:101790000000024064000020DC00002000F108018D
:1017A00041604FF0FF31816000F10801C1600161CB
:1017B00000210160704700210161704742684A6062
:1017C00093688B60936859609160086103685B1C43
:1017D0000360704710B502460B685C1C0CB91069B9
:1017E00007E002F1080000E04068446824689C4279
:1017F000FAD944684C604C68A160886041600A6115
:101800001468641C146010BD01460A69D1E90130F6
:101810009860D1E9010358605068884201D1886816
:101820005060002008611068401E1060106870470A
:1018300070B505460E462C4654B900BF502080F3C3
:101840001188BFF34F8FBFF36F8F00BF00BFFEE75C
:1018500003F01DF9D4E90F12206801FB020060605B
:101860000020A0632068A060E06B401E226C21680D
:1018700000FB0210E060FF2084F8440084F845007B
:101880009EB9206908B9012000E00020A8B904F140
:10189000100001F021FF80B14FF08050F84908603E
:1018A000BFF34F8FBFF36F8F07E004F11000FFF716
:1018B00075FF04F12400FFF771FF03F00FF9012019
:1018C00070BD2DE9F04106460D4617469846069C28
:1018D0000DB9246000E02760E663256401212046FD
:1018E000FFF7A6FF84F84C80BDE8F0812DE9F843AE
:1018F00005460E4690460DB1012000E0002050B98B
:1019000000BF502080F31188BFF34F8FBFF36F8F5C
:1019100000BF00BFFEE70EB9002701E005FB06F798
:1019200007F1500002F0C9FE044644B104F1500929
:1019300043464A46314628460094FFF7C2FF2046F8
:10194000BDE8F88370B5044603F0A1F894F945505A
:1019500010E0606A08B9012000E0002038B904F105
:10196000240001F0B9FE18B101F0BAFF00E003E075
:10197000681E45B2002DECDC00BFFF2084F8450056
:1019800003F0ACF803F083F894F9445010E02069B8
:1019900008B9012000E0002048B904F1100001F06E
:1019A0009BFE08B101F09CFF681E45B200E001E01B
:1019B000002DECDC00BFFF2084F8440003F08EF81B
:1019C00070BD70B5054603F062F8A86BE96B8842FC
:1019D00001D1012400E0002403F080F8204670BD0E
:1019E0002DE9F04104460F4615464FF00008A66B5E
:1019F000206C40B9206860BB606801F0ECFF804655
:101A00000020606025E07DB93946226CA06803F0B3
:101A10004CF9216CA0680844A060D4E90110884208
:101A200017D32068A06014E03946226CE06803F008
:101A30003CF9216CE068401AE0602168E068884267
:101A400003D2216C6068401AE060022D01D106B11A
:101A5000761E701CA0634046BDE8F0812DE9FF436F
:101A600083B0064688461D464FF00009344654B9F7
:101A700000BF502080F31188BFF34F8FBFF36F8FEB
:101A800000BF00BFFEE7B8F1000F01D1206C08B91C
:101A9000012000E0002050B900BF502080F31188E1
:101AA000BFF34F8FBFF36F8F00BF00BFFEE7022D64
:101AB00002D1E06B012801D1012000E0002050B9E3
:101AC00000BF502080F31188BFF34F8FBFF36F8F9B
:101AD00000BF00BFFEE701F015FF08B9059808B97F
:101AE000012000E0002050B900BF502080F3118891
:101AF000BFF34F8FBFF36F8F00BF00BFFEE700BF84
:101B000002F0C5FFA06BE16B884201D3022D28D102
:101B10002A4641462046FFF763FF0746606A08B938
:101B2000012000E0002068B904F1240001F0D4FD98
:101B300088B14FF0805052490860BFF34F8FBFF318
:101B40006F8F08E03FB14FF080504D490860BFF300
:101B50004F8FBFF36F8F02F0C1FF012007B0BDE8C8
:101B6000F083059818B902F0B9FF0020F6E7B9F143
:101B7000000F04D101A801F06AFE4FF0010902F044
:101B8000ADFF01F0BCF802F082FF94F94400401C64
:101B900010B9002084F8440094F94500401C10B9A5
:101BA000002084F8450002F099FF05A901A801F082
:101BB00055FEF0B92046FFF704FFA0B104F1100074
:101BC000059901F01FFD2046FFF7BCFE00F0E9FF7C
:101BD000002895D14FF0805029490860BFF34F8FFE
:101BE000BFF36F8F8CE72046FFF7ACFE00F0D9FF04
:101BF00086E72046FFF7A6FE00F0D3FF0020ADE702
:101C000010B504464CB1002060602060E060002305
:101C10001A4619462046FFF721FF10BD2DE9F04175
:101C2000044601260027224600210120FFF75EFE20
:101C300005462846FFF7E4FF2846BDE8F08170B569
:101C400005462C4654B900BF502080F31188BFF3DD
:101C50004F8FBFF36F8F00BF00BFFEE701F04FFE55
:101C6000616888420ED1E068401EE060E06828B9F3
:101C700000231A4619462046FFF7F0FE012602E02F
:101C800004ED00E00026304670BD01464A6A22B1EC
:101C90000A6B1268C2F1050000E00020704770B5C1
:101CA000054602F0F4FEA86B08B9012400E0002408
:101CB00002F014FF204670BD2DE9F34182B00546C5
:101CC0004FF000082C46002654B900BF502080F386
:101CD0001188BFF34F8FBFF36F8F00BF00BFFEE7C8
:101CE000206C08B9012000E0002050B900BF50204E
:101CF00080F31188BFF34F8FBFF36F8F00BF00BF1A
:101D0000FEE701F0FFFD08B9039808B9012000E0E3
:101D1000002050B900BF502080F31188BFF34F8FCF
:101D2000BFF36F8F00BF00BFFEE700BF02F0AFFE42
:101D3000A76BFFB1781EA063206810B901F028FFDF
:101D40006060206908B9012000E0002060B904F15A
:101D5000100001F0C1FC38B14FF08050F849086024
:101D6000BFF34F8FBFF36F8F02F0B8FE012004B0B6
:101D7000BDE8F081039898B90EB9012000E0002079
:101D800050B900BF502080F31188BFF34F8FBFF3CD
:101D90006F8F00BF00BFFEE702F0A0FE0020E6E765
:101DA000B8F1000F04D1684601F051FD4FF0010871
:101DB00002F094FE00F0A3FF02F069FE94F94400E3
:101DC000401C10B9002084F8440094F94500401CE0
:101DD00010B9002084F8450002F080FE03A968468F
:101DE00001F03CFD40BB2046FFF759FFF0B12068F1
:101DF00038B902F04CFE606801F090FD064602F032
:101E00006DFE04F12400039901F0FCFB2046FFF76E
:101E100099FD00F0C6FE002888D14FF08050C849D7
:101E20000860BFF34F8FBFF36F8F7FE72046FFF748
:101E300089FD00F0B6FE79E72046FFF783FD00F04C
:101E4000B0FE2046FFF72BFF0028EED05EB102F077
:101E50001EFE2046FFF719FF07463946606801F06D
:101E600018FE02F03BFE002081E72DE9F041064616
:101E70000F46344654B900BF502080F31188BFF399
:101E80004F8FBFF36F8F00BF00BFFEE701F037FD3C
:101E90006168884204D1E068401CE060012508E0E8
:101EA00039462046FFF708FF054615B1E068401C9B
:101EB000E0602846BDE8F08170B505460E460DB1DC
:101EC000012000E0002050B900BF502080F31188AD
:101ED000BFF34F8FBFF36F8F00BF00BFFEE7AE426F
:101EE00001D8012000E0002050B900BF502080F34D
:101EF0001188BFF34F8FBFF36F8F00BF00BFFEE7A6
:101F0000022200212846FFF7F1FC044604B1A66333
:101F1000204670BD2DE9F05F07468A4690461E4672
:101F20003C4654B900BF502080F31188BFF34F8F57
:101F3000BFF36F8F00BF00BFFEE7BAF1000F01D102
:101F4000206C08B9012000E0002050B900BF5020EB
:101F500080F31188BFF34F8FBFF36F8F00BF00BFB7
:101F6000FEE7022E02D1E06B012801D1012000E042
:101F7000002050B900BF502080F31188BFF34F8F6D
:101F8000BFF36F8F00BF00BFFEE702F0DBFD00BFB5
:101F90005021EFF3118081F31188BFF34F8FBFF30E
:101FA0006F8F00BF0546A06BE16B884201D3022E04
:101FB00023D194F945B0324651462046FFF710FD33
:101FC0000BF1010088B9606A08B9012000E0002027
:101FD00080B904F1240001F07FFB58B1B8F1000F83
:101FE00008D00120C8F8000004E00BF1010040B265
:101FF00084F845004FF0010901E04FF0000900BFEF
:1020000085F3118800BF4846BDE8F09F2DE9F047F1
:1020100006460F46344654B900BF502080F311885D
:10202000BFF34F8FBFF36F8F00BF00BFFEE7206C81
:1020300008B9012000E0002050B900BF502080F313
:102040001188BFF34F8FBFF36F8F00BF00BFFEE754
:10205000206808B9606808B9012000E0002050B984
:1020600000BF502080F31188BFF34F8FBFF36F8FF5
:1020700000BF00BFFEE702F065FD00BF5021EFF397
:10208000118081F31188BFF34F8FBFF36F8F00BFB3
:102090000546D4F83890E06B48451ED994F945A020
:1020A00009F10100A0630AF1010070B9606A08B982
:1020B000012000E0002068B904F1240001F00CFBCD
:1020C00040B13FB10120386004E00AF1010040B2A4
:1020D00084F845004FF0010801E04FF0000800BF10
:1020E00085F3118800BF4046BDE8F08770B504460F
:1020F0000D46206C70B1216CE0680844E0606168B6
:10210000E068884201D32068E0602846226CE168DC
:1021100002F0CBFD70BD2DE9F74183B005460E46B8
:102120004FF000082C466CB900BF502080F3118896
:10213000BFF34F8FBFF36F8F00BF00BFFEE70000FC
:1021400004ED00E00EB9206C08B9012000E0002089
:1021500050B900BF502080F31188BFF34F8FBFF3F9
:102160006F8F00BF00BFFEE701F0CCFB08B90598F8
:1021700008B9012000E0002050B900BF502080F3D2
:102180001188BFF34F8FBFF36F8F00BF00BFFEE713
:1021900000BF02F07CFCA76BF7B131462046FFF789
:1021A000A5FF781EA063206908B9012000E0002087
:1021B00060B904F1100001F08FFA38B14FF080508F
:1021C000FA490860BFF34F8FBFF36F8F02F086FCB0
:1021D000012006B0BDE8F081059818B902F07EFC38
:1021E0000020F6E7B8F1000F04D101A801F02FFBA1
:1021F0004FF0010802F072FC00F081FD02F047FC94
:1022000094F94400401C10B9002084F8440094F96B
:102210004500401C10B9002084F8450002F05EFC27
:1022200005A901A801F01AFBF0B92046FFF737FD18
:10223000A0B104F12400059901F0E4F92046FFF76C
:1022400081FB00F0AEFC0028A3D14FF08050D749AD
:102250000860BFF34F8FBFF36F8F9AE72046FFF7F9
:1022600071FB00F09EFC94E72046FFF76BFB00F04B
:1022700098FC2046FFF713FD00288AD00020A8E72D
:102280002DE9F74382B005460E464FF000082C4674
:1022900054B900BF502080F31188BFF34F8FBFF3B4
:1022A0006F8F00BF00BFFEE70EB9206C08B9012098
:1022B00000E0002050B900BF502080F31188BFF328
:1022C0004F8FBFF36F8F00BF00BFFEE701F01AFB17
:1022D00008B9049808B9012000E0002050B900BFF7
:1022E000502080F31188BFF34F8FBFF36F8F00BF73
:1022F00000BFFEE700BF02F0CAFBD4F83890B9F186
:10230000000F1ED0E76831462046FFF7EFFEE7607A
:10231000606A08B9012000E0002060B904F12400DF
:1023200001F0DAF938B14FF08050A0490860BFF3EE
:102330004F8FBFF36F8F02F0D1FB012005B0BDE8D6
:10234000F083049818B902F0C9FB0020F6E7B8F151
:10235000000F04D1684601F07AFA4FF0010802F04C
:10236000BDFB00F0CCFC02F092FB94F94400401C51
:1023700010B9002084F8440094F94500401C10B9BD
:10238000002084F8450002F0A9FB04A9684601F08A
:1023900065FAF0B92046FFF782FCA0B104F12400F1
:1023A000049901F02FF92046FFF7CCFA00F0F9FB71
:1023B0000028A0D14FF080507C490860BFF34F8FB8
:1023C000BFF36F8F97E72046FFF7BCFA00F0E9FBF9
:1023D00091E72046FFF7B6FA00F0E3FB2046FFF74F
:1023E0005EFC002887D00020A8E72DE9F05F0646B4
:1023F00089461746344654B900BF502080F31188EF
:10240000BFF34F8FBFF36F8F00BF00BFFEE7B9F17F
:10241000000F01D1206C08B9012000E0002050B964
:1024200000BF502080F31188BFF34F8FBFF36F8F31
:1024300000BF00BFFEE702F085FB00BF5021EFF3B5
:10244000118081F31188BFF34F8FBFF36F8F00BFEF
:102450000546D4F838A0BAF1000F22D094F944B060
:1024600049462046FFF742FEAAF10100A0630BF1A6
:10247000010070B9206908B9012000E0002068B9A6
:1024800004F1100001F028F940B13FB1012038609B
:1024900004E00BF1010040B284F844004FF0010861
:1024A00001E04FF0000800BF85F3118800BF4046EF
:1024B000BDE8F09F2DE9F04706468846344654B9FA
:1024C00000BF502080F31188BFF34F8FBFF36F8F91
:1024D00000BF00BFFEE7B8F1000F01D1206C08B9C2
:1024E000012000E0002050B900BF502080F3118887
:1024F000BFF34F8FBFF36F8F00BF00BFFEE7206CAD
:1025000008B1012000E0002050B900BF502080F346
:102510001188BFF34F8FBFF36F8F00BF00BFFEE77F
:1025200002F010FB00BF5021EFF3118081F31188FE
:10253000BFF34F8FBFF36F8F00BF0546A06B48B14D
:10254000D4F80C9041462046FFF7D0FDC4F80C901B
:10255000012700E0002700BF85F3118800BF38463F
:10256000BDE8F08770B5044654B900BF502080F331
:102570001188BFF34F8FBFF36F8F00BF00BFFEE71F
:1025800002F085FAA56B02F0A9FA284670BD70B575
:102590000446254665B900BF502080F31188BFF37B
:1025A0004F8FBFF36F8F00BF00BFFEE704ED00E069
:1025B00002F06DFAD5E90E10461A02F08FFA304695
:1025C00070BD014651B900BF502282F31188BFF39C
:1025D0004F8FBFF36F8F00BF00BFFEE7886B704760
:1025E000014600200EE0524A02EBC00252688A42C5
:1025F00007D100224E4B43F8302003EBC0035A6052
:1026000002E0401C0828EED300BF704770B50446B6
:10261000254655B900BF502080F31188BFF34F8F76
:10262000BFF36F8F00BF00BFFEE72846FFF7D8FF5C
:10263000284602F0D6F870BD0146886C7047816468
:102640007047014691F84C007047014651B900BFF0
:10265000502282F31188BFF34F8FBFF36F8F00BFFB
:1026600000BFFEE78A6B0AB9012000E00020704736
:10267000014651B900BF502282F31188BFF34F8F3A
:10268000BFF36F8F00BF00BFFEE78A6BCB6B9A4230
:1026900001D1012000E000207047024600200BE03D
:1026A000234B53F8303033B9214B43F8301003EB50
:1026B000C0035A6002E0401C0828F1D300BF7047F5
:1026C0000246002000210AE0194B03EBC1035B68BE
:1026D000934203D1164B53F8310002E0491C0829FC
:1026E000F2D300BF70472DE9F04105460E4617466C
:1026F0002C4602F0CCF994F94400401C10B900209B
:1027000084F8440094F94500401C10B9002084F876
:10271000450002F0E3F9A06B28B93A46314604F1CE
:10272000240000F0BBFF2046FFF70CF9BDE8F08164
:10273000A401002010B5002407E004EB8401F74A4F
:1027400002EB8100FFF72AF8641C052CF5D3F4484E
:10275000FFF724F8F348FFF721F8F348FFF71EF8D6
:10276000F248FFF71BF8F248FFF718F8EC48F14978
:102770000860EC48F049086010BD10B5044602F04E
:1027800086F9EE480068401CEC490860EC48006897
:1027900040B9EB4804600846006801280DD1FFF7F6
:1027A000C9FF0AE0E748006838B9E5480068C06A30
:1027B000E16A884201D8E2480460E3480068401CAE
:1027C000E149086008460068206494F82C10012054
:1027D0008840DE4909680843DC490860E16A01EB8A
:1027E0008101CE4A02EB8100211DFEF7E7FF02F0D6
:1027F00075F9D448006868B1D1480068C06AE16AD8
:10280000884207D24FF08050D1490860BFF34F8F04
:10281000BFF36F8F10BD2DE9F05F82460F469046E3
:102820009B460A9E0C9C4FEA8801A522206B02F071
:1028300081FAA8F10100216B01EB800929F0070959
:1028400009F0070008B9012000E0002050B900BFDE
:10285000502080F31188BFF34F8FBFF36F8F00BFFD
:1028600000BFFEE7002507E0795D04F13400415523
:10287000785D00B902E06D1C0A2DF5D300BF002180
:102880003D200155052E00D30426E662A6640020F3
:10289000E064201DFEF78FFF04F11800FEF78BFFA8
:1028A0002461C6F10500A06164620020206584F8FF
:1028B00054005A465146484602F00AF820600B98E8
:1028C00008B10B980460BDE8F09F2DE9FF4F85B07B
:1028D000804689461746DDE912ABB80001F0EDFEEF
:1028E000064656B1582001F0E8FE04460CB12663B6
:1028F00004E0304601F075FF00E000247CB10020C8
:10290000CDE900ABCDE902403A4649464046089B36
:10291000FFF781FF2046FFF730FF012501E04FF070
:10292000FF35284609B0BDE8F08F8249096809687B
:1029300009B9012100E0002121B14FF0FF31854AA2
:10294000116006E07B490968C968C868814A416826
:102950001160704710B50446206B01F042FF20461D
:1029600001F03FFF10BD70B5054602F090F815B9B3
:102970007348006800E028460446201DFEF744FF27
:1029800078B9E06A00EB8000644951F8200040B952
:1029900094F82C10012088406C49096881436B48E9
:1029A0000160A06A18B104F11800FEF72DFF664817
:1029B0000068401C6449086061480068844209D18D
:1029C000211D5A48FEF7FAFE63480068401C624920
:1029D000086009E059480068401E584908602046D0
:1029E000FFF7B8FFFFF7A1FF02F078F8554800683D
:1029F000E8B153480068844219D15848006808B9C2
:102A0000012000E0002050B900BF502080F3118861
:102A1000BFF34F8FBFF36F8F00BF00BFFEE74FF0D4
:102A200080504B490860BFF34F8FBFF36F8F70BD6D
:102A30002DE9F0414FF000084848006800286BD1AC
:102A400047480068451C46480560006845490860DD
:102A500015BB38480068006808B9012000E0002074
:102A600050B900BF502080F31188BFF34F8FBFF3E0
:102A70006F8F00BF00BFFEE72E4807682E48006832
:102A80002C4908602C48076037480068401C3649CC
:102A90000860FFF74AFF00BF2E480068854266D3F2
:102AA00000BF24480068006808B9012000E0002049
:102AB00020B14FF0FF302749086057E01D480068FB
:102AC000C068C4686668B54202D2224806604DE01C
:102AD000201DFEF799FEA06A18B104F11800FEF758
:102AE00093FE94F82C100120884018490968084387
:102AF00016490860E16A01EB8101084A02EB810096
:102B0000211DFEF75BFE0E49E06A0968C96A88422A
:102B1000C7D34FF00108C4E736E028E0E401002005
:102B2000480200205C020020700200208402002085
:102B3000980200206C000020700000207800002027
:102B40006800002084000020940000208000002005
:102B500004ED00E09800002074000020A000002098
:102B60007C000020000000209000002000BFFB48F7
:102B70000068C06A00EB8000F94951F82000012884
:102B800001D94FF0010804E0F6480068401CF549FF
:102B90000860F548006808B14FF001084046BDE8FC
:102BA000F08170B500240026F048006850B900BFDD
:102BB000502080F31188BFF34F8FBFF36F8F00BF9A
:102BC00000BFFEE701F063FFE8480068401EE749E8
:102BD00008600846006800284FD1E54800680028D2
:102BE0004BD024E0E348C068C46804F11800FEF745
:102BF0000BFE201DFEF708FE94F82C1001208840E3
:102C0000DD4909680843DC490860E16A01EB81019C
:102C1000D34A02EB8100211DFEF7D0FDCF49E06AC7
:102C20000968C96A884202D30120CF490860D148A7
:102C3000006808B9012000E000200028D2D00CB1C3
:102C4000FFF773FEC748056865B100BFFFF7F0FEE8
:102C500010B10120C44908606D1E002DF6D100207E
:102C6000C0490860C048006838B101263007C34930
:102C70000860BFF34F8FBFF36F8F01F02FFF304617
:102C800070BD2DE9F04105460E46BD480768B348C2
:102C90000068001DFEF7B8FD50B9B048006890F814
:102CA0002C1001208840B44909688143B248016072
:102CB000681C38B936B1A9480168091DB148FEF74A
:102CC0007DFD1AE07C19A54800684460BC4207D22B
:102CD000A2480168091DAC480068FEF77BFD0CE0C6
:102CE0009E480168091DA9480068FEF773FDA848C1
:102CF0000068844201D2A6480460BDE8F0819B4888
:102D00000068401C9949086070472DE9F047044667
:102D10000F464FF0000954B900BF502080F31188CE
:102D2000BFF34F8FBFF36F8F00BF00BFFEE70FB140
:102D3000012000E0002050B900BF502080F311882E
:102D4000BFF34F8FBFF36F8F00BF00BFFEE7874811
:102D5000006808B9012000E0002050B900BF5020F1
:102D600080F31188BFF34F8FBFF36F8F00BF00BF99
:102D7000FEE7FFF7C4FF824806682068C51920688F
:102D8000B04207D92068A8420BD9B54209D94FF003
:102D9000010906E02068A84201D8B54201D94FF0E8
:102DA00001092560B9F1000F03D0A81B0021FFF72E
:102DB00068FFFFF7F6FE8046B8F1000F07D14FF02D
:102DC00080506E490860BFF34F8FBFF36F8FBDE82F
:102DD000F08770B504460025D4B16448006808B98E
:102DE000012000E0002050B900BF502080F311887E
:102DF000BFF34F8FBFF36F8F00BF00BFFEE7FFF73A
:102E00007EFF00212046FFF73CFFFFF7CAFE054684
:102E10003DB94FF0805059490860BFF34F8FBFF361
:102E20006F8F70BD2DE9F04107463E4656B900BF91
:102E3000502080F31188BFF34F8FBFF36F8F00BF17
:102E400000BFFEE745480068864201D100241EE02D
:102E500001F01DFE756901F041FE4C480068854295
:102E600003D049480068854201D102240FE045485B
:102E7000854205D1B06A08B9032408E0022406E0BF
:102E80004448854200D00DB9042400E001242046C6
:102E9000BDE8F08170B5044601F0F9FD14B92F4882
:102EA000006800E020460646F56A01F017FE284655
:102EB00070BD2DE9F041054601F044FE00BF5021F0
:102EC000EFF3118081F31188BFF34F8FBFF36F8F42
:102ED00000BF044615B92148006800E028460746AF
:102EE000FE6A00BF84F3118800BF3046BDE8F08160
:102EF0002DE9F04780460D464FF00009052D01D21F
:102F0000012000E0002050B900BF502080F311885C
:102F1000BFF34F8FBFF36F8F00BF00BFFEE7052DDC
:102F200000D3042501F0B3FDB8F1000F02D10B4826
:102F3000006800E040460446A66CAE4275D0B5423B
:102F40002AD90648006884422CD004480068C06A28
:102F5000A84227D84FF0010924E0000068000020B3
:102F6000E4010020880000208C000020A000002048
:102F700078000020700200208000002004ED00E0B6
:102F80007C00002098020020700000206C000020CF
:102F90009800002084020020FE480068844201D18D
:102FA0004FF00109E76AE16AA06C884200D1E5624E
:102FB000A564A06900F0004010B9C5F10500A0614A
:102FC00007EB8701F44A02EB81016069884201D175
:102FD000012000E00020E0B1201DFEF715FC30B913
:102FE0000120B840ED4909688143EC48016094F83C
:102FF0002C1001208840E94909680843E749086026
:10300000E16A01EB8101E44A02EB8100211DFEF738
:10301000D5FBB9F1000F07D04FF08050E0490860B0
:10302000BFF34F8FBFF36F8F00BF01F057FDBDE8B7
:10303000F087DC48006818B10120DB49086032E005
:103040000020D9490860D5480068B0FA80F0C0F186
:103050001F0101EB8100D04A52F8200008B1012085
:1030600000E0002050B900BF502080F31188BFF36A
:103070004F8FBFF36F8F00BF00BFFEE701EB8102F0
:10308000C54B03EB820042685268426000F10802BF
:103090004368934202D14268526842604268D268F3
:1030A000BC4B1A6000BF704770B5054601F0EFFCDD
:1030B00015B9B848006800E028460446201DFEF710
:1030C000A3FB78B9E06A00EB8000B34951F8200017
:1030D00040B994F82C1001208840B0490968814318
:1030E000AE480160A06A18B104F11800FEF78CFB2D
:1030F000211DAE48FEF762FB94F85400012802D16E
:10310000002084F8540001F0E9FCA948006828B1C7
:1031100001F0BDFCFFF709FC01F0E0FC9D480068F0
:10312000844229D1A2480068D0B19E48006808B9FD
:10313000012000E0002050B900BF502080F311882A
:10314000BFF34F8FBFF36F8F00BF00BFFEE74FF09D
:10315000805093490860BFF34F8FBFF36F8F0BE030
:103160009248006893490968884203D10020894940
:10317000086001E0FFF75DFF70BD10B5024600205A
:10318000114652B900BF502383F31188BFF34F8F0C
:10319000BFF36F8F00BF00BFFEE7844C4B69A342B3
:1031A00001D1012300E0002373B1834C8B6AA34259
:1031B00001D1012300E0002333B98B6A0BB901234D
:1031C00000E0002303B1012010BD70B505462C4678
:1031D00055B900BF502080F31188BFF34F8FBFF364
:1031E0006F8F00BF00BFFEE774B36A480068844277
:1031F0002AD001F04CFC2046FFF7BFFF10B3201D82
:10320000FEF702FB94F82C100120884063490968FE
:10321000084362490860E16A01EB81015E4A02EB02
:103220008100211DFEF7CAFA5A49E06A0968C96A95
:10323000884207D34FF0805059490860BFF34F8F41
:10324000BFF36F8F01F04AFC70BD2DE9F0410646D7
:103250000027344656B900BF502080F31188BFF3D1
:103260004F8FBFF36F8F00BF00BFFEE701F06AFC16
:1032700000BF5021EFF3118081F31188BFF34F8F0E
:10328000BFF36F8F00BF05462046FFF776FF20B3E0
:1032900044480068E0B93F49E06A0968C96A884261
:1032A00000D30127201DFEF7AFFA94F82C1001205F
:1032B00088403A490968084338490860E16A01EBE7
:1032C0008101354A02EB8100211DFEF777FA04E007
:1032D00004F118013848FEF771FA00BF85F3118830
:1032E00000BF3846BDE8F08110B516E001F0CFFB15
:1032F0003248C068C468201DFEF786FA2D48006871
:10330000401E2C4908602E480068401E2C49086069
:1033100001F0E4FB2046FFF71DFB29480068002868
:10332000E4D110BD00BFFFF7DFFF1B480068012894
:10333000F9D94FF080501A490860BFF34F8FBFF39F
:103340006F8FF0E71CB51F4800210B468222CDE9A4
:1033500000101DA11E48FFF7B8FA0446012C02D147
:1033600001F03BF80446012C3BD100BF502080F314
:103370001188BFF34F8FBFF36F8F00BF4FF0FF3047
:103380001449086001200A490860002012490860B9
:1033900024E0000068000020E401002080000020FC
:1033A00004ED00E0A00000208C0000209802002026
:1033B0008400002078000020700200208402002099
:1033C000740000209C00002049444C45000000008F
:1033D00025330008980000207C00002001F09DFAB1
:1033E00010E0601C08B1012000E0002050B900BFCF
:1033F000502080F31188BFF34F8FBFF36F8F00BF52
:1034000000BFFEE71CBD10B500BF502080F311883F
:10341000BFF34F8FBFF36F8F00BF0020F9490860E3
:1034200001F020FB10BDF8490868704770B501F045
:1034300089FB0025F4480468204670BDF348006805
:103440007047014611B9F248006800E0084602469C
:1034500052B900BF502080F31188BFF34F8FBFF3E4
:103460006F8F00BF00BFFEE702F1340070470246D5
:10347000002101E0521C491C1078A528FAD08908C7
:1034800088B270472DE9F04107460C4690461E462B
:1034900017B9DF48006800E038460546256005F1A9
:1034A00034006060E86A2061286BE061286CA060ED
:1034B000A86C60610020A061052E12D0D44800687D
:1034C000854202D1002020730FE02673032E0CD119
:1034D000FFF715FCA86A08B102202073FFF761FB13
:1034E00003E02846FFF79EFC2073B8F1000F04D0DC
:1034F000286BFFF7BCFF208401E000202084BDE89A
:10350000F0812DE9F04707460C46904600262068DA
:1035100048B3204641684968416000F108014268AB
:103520008A4202D14168496841604168D1F80C90F3
:1035300000BF204641684968416000F108014268C7
:103540008A4202D14168496841604168CD6806EB12
:10355000C60007EB8001434601222846FFF792FF91
:10356000761C4D45E5D13046BDE8F0872DE9F041A8
:1035700005468846164600240527FFF7C0FBA348EA
:103580000068804539D300BF7F1E07EB8702A14B3F
:1035900003EB820104EBC40205EB82000122FFF77A
:1035A000B0FF0444002FEFD104EBC40105EB810010
:1035B000022299490968FFF7A4FF044404EBC401FF
:1035C00005EB8100022295490968FFF79AFF044440
:1035D00004EBC40105EB810004229149FFF791FF40
:1035E000044404EBC40105EB810003228D49FFF77D
:1035F00088FF04440EB100203060FFF7D2FA204665
:10360000BDE8F08170B504460D4654B900BF5020A6
:1036100080F31188BFF34F8FBFF36F8F00BF00BFE0
:10362000FEE77B48016818312046FEF7D3F80121F8
:103630002846FFF726FB70BD70B504460D461646BA
:1036400054B900BF502080F31188BFF34F8FBFF3F0
:103650006F8F00BF00BFFEE77348006808B101200C
:1036600000E0002050B900BF502080F31188BFF364
:103670004F8FBFF36F8F00BF00BFFEE745F00040E4
:103680006349096888616248016818312046FEF77D
:1036900095F801213046FFF7F4FA70BD70B5054684
:1036A0000E46144655B900BF502080F31188BFF371
:1036B0004F8FBFF36F8F00BF00BFFEE75448016814
:1036C00018312846FEF77AF80CB14FF0FF36214644
:1036D0003046FFF7D6FA70BD70B50646F068C4688C
:1036E00054B900BF502080F31188BFF34F8FBFF350
:1036F0006F8F00BF00BFFEE704F11800FEF784F8EB
:1037000049480068A8B9201DFEF77EF894F82C10EF
:103710000120884045490968084344490860E16A36
:1037200001EB81013B4A02EB8100211DFEF746F8C7
:1037300004E004F118013E48FEF740F83449E06A1D
:103740000968C96A884204D90125012039490860FD
:1037500000E00025284670BD70B505460E4632488B
:10376000006808B1012000E0002050B900BF5020DF
:1037700080F31188BFF34F8FBFF36F8F00BF00BF7F
:10378000FEE746F000402860EC6854B900BF5020C6
:1037900080F31188BFF34F8FBFF36F8F00BF00BF5F
:1037A000FEE72846FEF730F8201DFEF72DF894F8C6
:1037B0002C10012088401D49096808431B490860F6
:1037C000E16A01EB8101134A02EB8100211DFDF743
:1037D000F5FF0F49E06A0968C96A884202D90120E9
:1037E0001449086070BD10B5044654B900BF50209C
:1037F00080F31188BFF34F8FBFF36F8F00BF00BFFF
:10380000FEE719E0840000207C0000207800002002
:1038100068000020E40100206C00002070000020FF
:103820008402002098020020A000002080000020D8
:10383000700200208C00002001F029F9FE48006889
:103840002060FE480068606001F048F910BDFA4948
:1038500009680160F94909684160704770B505461B
:103860000C4655B900BF502080F31188BFF34F8F2D
:10387000BFF36F8F00BF00BFFEE754B900BF5020F9
:1038800080F31188BFF34F8FBFF36F8F00BF00BF6E
:10389000FEE701F0FCF8E94802686868131A20683E
:1038A000401C08B9002617E0E349286809688842E7
:1038B00004D06868904201D801260DE02068984243
:1038C00007D92068C01A20602846FFF7C0FF0026ED
:1038D00002E000202060012601F000F9304670BDB2
:1038E0000120D74908607047014611B10A46506C63
:1038F00000E00020704708B1024651647047D1498A
:1039000008687047D049096809B9012005E0CF4926
:10391000096809B9022000E00020704770B505462B
:103920002C460026002D54D0C649E06A0968C96AB1
:10393000884247D2A06900F0004028B9C148006819
:10394000C06AC0F10500A061E16A01EB8101C04AD3
:1039500002EB81016069884201D1012000E0002072
:1039600050B3201DFDF750FF78B9E06A00EB8000EE
:10397000B74951F8200040B994F82C100120884034
:10398000B44909688143B3480160AE480068C06A21
:10399000E06294F82C1001208840AE490968084381
:1039A000AC490860E16A01EB8101A94A02EB8100A0
:1039B000211DFDF703FF03E0A2480068C06AE06232
:1039C000012606E09F49A06C0968C96A884200D2B6
:1039D0000126304670BD70B505462C460026002DE8
:1039E00055D098480068844201D1012000E00020B1
:1039F00050B900BF502080F31188BFF34F8FBFF341
:103A00006F8F00BF00BFFEE7E06C50B900BF5020D1
:103A100080F31188BFF34F8FBFF36F8F00BF00BFDC
:103A2000FEE7E06C401EE064A16CE06A88422ED0A4
:103A3000E06C60BB201DFDF7E7FE78B9E06A00EBA3
:103A40008000834951F8200040B994F82C100120DF
:103A500088408049096881437E480160A06CE0622B
:103A6000E06AC0F10500A06194F82C1001208840A4
:103A700078490968084377490860E16A01EB8101E8
:103A8000734A02EB8100211DFDF798FE01263046A6
:103A900070BD2DE9F04706460F4634464FF0010948
:103AA000002E67D0E06C50B900BF502080F3118821
:103AB000BFF34F8FBFF36F8F00BF00BFFEE7A06C57
:103AC000B84201D23D4600E0A56CE06AA84251D060
:103AD000E06C01284ED15B480068844201D001208F
:103AE00000E0002050B900BF502080F31188BFF3E0
:103AF0004F8FBFF36F8F00BF00BFFEE7D4F82C805D
:103B0000E562A06900F0004010B9C5F10500A061B0
:103B100008EB88014E4A02EB81016069884201D1BD
:103B2000012000E0002028B3201DFDF76DFE78B9CC
:103B3000E06A00EB8000464951F8200040B994F853
:103B40002C100120884043490968814341480160A5
:103B500094F82C10012088403E49096808433D49EB
:103B60000860E16A01EB8101394A02EB8100211D05
:103B7000FDF724FEBDE8F0873249096888693149BC
:103B80000968C96AC1F105012E4A1268916170473E
:103B90002C48006830B12B49096801F14C00C96C10
:103BA000491C016027480068704770B506460D46FD
:103BB00000F06DFF23480068006D88B9012021499D
:103BC000096881F854005DB101212846FFF759F8D2
:103BD0004FF0805020490860BFF34F8FBFF36F8FC5
:103BE00000F07CFF00F053FF16480068046D4CB1F4
:103BF00026B1002013490968086503E0601E1149D9
:103C00000968086500200F49096881F8540000F030
:103C100065FF204670BD2DE9F041074688461446F1
:103C20001D4600F034FF0748006890F85400022851
:103C30002BD00449096811E0900000207C0000208E
:103C40008C0000206800002084000020A0000020DC
:103C5000E40100208000002004ED00E001F15000AC
:103C6000096DB94301600120E349096881F85400F6
:103C70005DB101212846FFF704F84FF08050DF497D
:103C80000860BFF34F8FBFF36F8F00F027FF00F086
:103C9000FEFE1CB1D8480068006D2060D648006860
:103CA00090F85400022801D0002608E0D2490968A3
:103CB00001F15000096D21EA080101600126002090
:103CC000CD49096881F8540000F008FF3046BDE88E
:103CD000F0812DE9F04706460D46174698464FF00D
:103CE000010A56B900BF502080F31188BFF34F8FEF
:103CF000BFF36F8F00BF00BFFEE7344600F0C7FE82
:103D0000B8F1000F02D0206DC8F8000094F854906C
:103D1000022084F85400052F17D2DFE807F01503BE
:103D2000070B0D00206D284320650EE0206D401C20
:103D300020650AE0256508E0B9F1020F01D025658C
:103D400001E04FF0000A00E000BF00BFB9F1010F31
:103D500033D1201DFDF758FD94F82C100120884028
:103D6000A74909680843A6490860E16A01EB810197
:103D7000A44A02EB8100211DFDF720FDA06A08B9CD
:103D8000012000E0002050B900BF502080F31188CE
:103D9000BFF34F8FBFF36F8F00BF00BFFEE79649A1
:103DA000E06A0968C96A884207D94FF08050934990
:103DB0000860BFF34F8FBFF36F8F00F08FFE504648
:103DC000BDE8F0872DE9F84F07460E469046994624
:103DD000DDF828B00120009057B900BF502080F3D3
:103DE0001188BFF34F8FBFF36F8F00BF00BFFEE797
:103DF00000F0A8FE3C4600BF5021EFF3118081F394
:103E00001188BFF34F8FBFF36F8F00BF0546B9F125
:103E1000000F02D0206DC9F8000094F854A00220D1
:103E200084F85400B8F1050F17D2DFE808F0150345
:103E3000070B0D00206D304320650EE0206D401C07
:103E400020650AE0266508E0BAF1020F01D0266578
:103E500001E00020009000E000BF00BFBAF1010FB8
:103E60003ED1A06A08B9012000E0002050B900BF8F
:103E7000502080F31188BFF34F8FBFF36F8F00BFC7
:103E800000BFFEE760480068A8B9201DFDF7BCFC34
:103E900094F82C1001208840594909680843584972
:103EA0000860E16A01EB8101564A02EB8100211DA5
:103EB000FDF784FC04E004F118015448FDF77EFC92
:103EC0004D49E06A0968C96A884209D9BBF1000F07
:103ED00003D00120CBF8000002E001204C4908602B
:103EE00000BF85F3118800BF0098BDE8F88F2DE969
:103EF000F04105460F4655B900BF502080F31188A8
:103F0000BFF34F8FBFF36F8F00BF00BFFEE700F01E
:103F100019FE2C4600BF5021EFF3118081F3118868
:103F2000BFF34F8FBFF36F8F00BF064694F85480E6
:103F3000022084F85400206D401C2065B8F1010F68
:103F40003BD1A06A08B9012000E0002050B900BFB1
:103F5000502080F31188BFF34F8FBFF36F8F00BFE6
:103F600000BFFEE728480068A8B9201DFDF74CFCFB
:103F700094F82C1001208840214909680843204901
:103F80000860E16A01EB81011E4A02EB8100211DFC
:103F9000FDF714FC04E004F118011C48FDF70EFCC9
:103FA0001549E06A0968C96A884206D917B1012033
:103FB000386002E001201649086000BF86F31188CE
:103FC00000BFBDE8F08170B5054615B90A48006824
:103FD00000E02846064600F05AFD96F854000228F4
:103FE00004D1002086F85400012400E0002400F0F1
:103FF00075FD204670BD00006800002004ED00E063
:1040000080000020E4010020A000002070020020B9
:104010008C0000202DE9F04104460D4616461F464F
:104020004FF0000865602461B5420CD8F01BA1690F
:10403000884202D34FF0010811E0211DF7480068C3
:10404000FDF7C8FB0BE0BE4204D2BD4202D34FF0E5
:10405000010804E0211DF2480068FDF7BBFB404663
:10406000BDE8F0812DE9FE4304460D4616461F4685
:10407000DDF828804FF0000954B900BF502080F3CC
:104080001188BFF34F8FBFF36F8F00BF00BFFEE7F4
:10409000E448006810B3009501960294062D15DAE5
:1040A000FFF730FC022808D1002342466946DD486C
:1040B0000068FDF7D3FC814610E000231A466946EC
:1040C000D8480068FDF7CAFC814607E000233A465D
:1040D0006946D4480068FDF71DFF81464846BDE8A3
:1040E000FE832DE9F84332E0CD480068C0680568DA
:1040F000CB480068C068C468201DFDF785FB2046DA
:10410000616A8847E069012821D1A0694619AE4259
:1041100007D966602461211DC1480068FDF75AFB7C
:1041200015E0002003462A46014600902046FFF78E
:1041300099FF074657B900BF502080F31188BFF39D
:104140004F8FBFF36F8F00BF00BFFEE700BFB448C3
:104150000068006808B9012000E000200028C3D0F2
:10416000AF48D0F80080AD480068AD490860AB4862
:10417000C0F80080BDE8F88370B50446FFF753F936
:104180000546A9480068854204D2FFF7AAFF01202E
:10419000206001E000202060A3480560284670BD33
:1041A00070B586B06AE00398002867DB059C6069FB
:1041B00008B9012000E0002010B9201DFDF724FB04
:1041C00002A8FFF7D9FF054603980A2854D2DFE872
:1041D00000F009050731334F0608323400BF00BF35
:1041E00000BF00BF0498A269811803462A462046F2
:1041F000FFF710FFE8B12046616A8847E0690128AF
:1042000017D1002000900498A16942180023194694
:104210002046FFF727FF064656B900BF502080F31F
:104220001188BFF34F8FBFF36F8F00BF00BFFEE752
:1042300000BF22E000BF20E000BF0498A061A06999
:1042400008B1012000E0002050B900BF502080F3E9
:104250001188BFF34F8FBFF36F8F00BF00BFFEE722
:10426000A06941192B462A462046FFF7D3FE04E0F9
:10427000204600F0B6FA00E000BF00BF002203A90C
:1042800068480068FDF747FF00288CD106B070BD74
:10429000F8B505460F4662480068C068C468201D2E
:1042A000FDF7B2FAE06901281DD1A06941192B463A
:1042B0003A462046FFF7AEFEA8B1002003462A4644
:1042C000014600902046FFF7CDFE064656B900BFD6
:1042D000502080F31188BFF34F8FBFF36F8F00BF63
:1042E00000BFFEE700BF2046616A8847F8BDF8B509
:1042F00005460C46FEF703FD6846FFF73DFF064600
:10430000009820BB44B9B54206D8FEF74AFC3146B6
:104310002846FFF7BDFF1CE03CB14048006800683C
:1043200008B9012000E000200446A91B22463D48B0
:104330000068FEF7D8F9FEF734FC50B94FF0805012
:104340003A490860BFF34F8FBFF36F8F01E0FEF76C
:1043500028FCF8BD0146324A126812680AB90122E7
:1043600000E000220A600A6822B92D4A1268D26869
:10437000106800E00020704708B500BF6846FFF7EE
:10438000E9FF044620460099FFF7B1FFFFF708FF59
:10439000F4E710B500F07BFB22480068D0B9244850
:1043A000FDF7FCF92348FDF7F9F921481C4908609D
:1043B00020481A49086000220C210A20FDF796FACD
:1043C000184908600846006820B11BA1154800681C
:1043D000FEF763F900F082FB10BD1CB50024FFF767
:1043E000D8FF1048006858B11548022100234FF447
:1043F0008272CDE9001013A11448FEF766FA044654
:1044000054B900BF502080F31188BFF34F8FBFF322
:104410006F8F00BF00BFFEE720461CBDA800002034
:10442000A4000020AC000020B400002004ED00E057
:10443000AC020020C0020020546D72510000000048
:10444000B0000020546D7220537663007943000859
:104450002DE9F04706460D4617469846DDE90894D3
:104460000DB1012000E0002050B900BF502080F3C2
:104470001188BFF34F8FBFF36F8F00BF00BFFEE700
:104480005CB1FFF786FF2660A561E761C4F8208074
:10449000C4F82490201DFDF78EF9BDE8F0872DE9C2
:1044A000FC4705460E4617469846DDF828902C2016
:1044B00000F003F904463CB143463A4631462846EB
:1044C000CDE90094FFF7C4FF2046BDE8FC874948CA
:1044D000006808B1012000E0002050B900BF502062
:1044E00080F31188BFF34F8FBFF36F8F00BF00BF02
:1044F000FEE740480068704701460A4651B900BFD0
:10450000502080F31188BFF34F8FBFF36F8F00BF30
:1045100000BFFEE79069704710B501460A4651B9E1
:1045200000BF502383F31188BFF34F8FBFF36F8F0A
:1045300000BF00BFFEE7506810BD01460A4651B9F2
:1045400000BF502080F31188BFF34F8FBFF36F8FF0
:1045500000BF00BFFEE71068704770B504462646EE
:1045600054B900BF502080F31188BFF34F8FBFF3C1
:104570006F8F00BF00BFFEE700F089FA706908B9CD
:10458000012000E0002080F0010500F0A7FA284695
:1045900070BD70B50446254654B900BF502080F365
:1045A0001188BFF34F8FBFF36F8F00BF00BFFEE7CF
:1045B00000F06DFA2E6A00F091FA304670BD70B5C9
:1045C00004460D46264654B900BF502080F311889A
:1045D000BFF34F8FBFF36F8F00BF00BFFEE700F048
:1045E00056FA356200F07AFA70BD0146886A704763
:1045F00081627047B000002010B501469F4800E07E
:10460000006803688B42FBD30246436813448B4225
:1046100004D143684C682344436001460A464B6812
:1046200013440468A34211D1954C03682468A34243
:1046300008D04B680468646823444B6003681B68B7
:104640000B6005E08E4B1B680B6001E003680B609C
:10465000884200D0016010BD30B54FF496338948D0
:1046600000F007042CB1C01D20F00700854C041B8E
:104670001B1B0246814C22600024804D6C60D018C8
:10468000083820F007007E4C206000247C4D2D6807
:104690006C607B4D2D682C601146441A4C60784C40
:1046A00024680C60784D4C682C60784D4C682C6008
:1046B0004FF00044764D2C6030BD2DE9F0410446AA
:1046C0004FF00008FEF71BFB6D48006808B9FFF7C4
:1046D000C3FF6F480068204000286BD1D4B1083474
:1046E00004F00700B0B104F00700C0F10800044472
:1046F00004F0070008B9012000E0002050B900BF15
:10470000502080F31188BFF34F8FBFF36F8F00BF2E
:1047100000BFFEE7002C4DD05C480068844249D8B9
:10472000564E3046056801E02E462D686868A04266
:1047300002D228680028F7D151480068854239D054
:10474000306800F10808286830606868001B10288D
:1047500019D92F1907F0070008B9012000E000203F
:1047600050B900BF502080F31188BFF34F8FBFF3C3
:104770006F8F00BF00BFFEE76868001B78606C6049
:104780003846FFF739FF414968680968081A3F4908
:104790000860084600683C490968884203D23B48E3
:1047A0000068394908603A496868096808436860E0
:1047B00000202860FEF7F5F908F0070008B901208D
:1047C00000E0002050B900BF502080F31188BFF3F3
:1047D0004F8FBFF36F8F00BF00BFFEE74046BDE8BD
:1047E000F08170B506463546002E3FD0083D2C4678
:1047F000274960680968084008B1012000E00020EE
:1048000050B900BF502080F31188BFF34F8FBFF322
:104810006F8F00BF00BFFEE7206808B9012000E0ED
:10482000002050B900BF502080F31188BFF34F8F94
:10483000BFF36F8F00BF00BFFEE7154960680968CE
:10484000084098B1206888B91149606809688843B0
:104850006060FEF754FA0D496068096808440B4926
:1048600008602046FFF7C8FEFEF79BF970BD0748B9
:10487000006870470448006870477047B80000201F
:10488000C0000020D4020020C8000020C400002086
:10489000CC000020C6480068401C08B9012000E098
:1048A000002050B900BF502080F31188BFF34F8F14
:1048B000BFF36F8F00BF00BFFEE700BF502080F343
:1048C0001188BFF34F8FBFF36F8F00BF00BFFEE7AC
:1048D000001F4FF080730360001F21F0010303608D
:1048E000001FB44B036014380260001F6FF0020316
:1048F00003602038704700204FF0E0210861886194
:10490000AD4800684FF47A71B0FBF1F0401E4FF0F3
:10491000E02148610720086170471CB5A74800687E
:10492000A749884201D0012000E0002050B900BF13
:10493000502080F31188BFF34F8FBFF36F8F00BFFC
:1049400000BFFEE79D4800689D49491E884201D08E
:10495000012000E0002050B900BF502080F31188F2
:10496000BFF34F8FBFF36F8F00BF00BFFEE79549C6
:10497000084600780190FF200A461070084600782B
:1049800000909DF8000000F0F0009DF8002090429B
:1049900001D1012000E0002050B900BF502080F379
:1049A0001188BFF34F8FBFF36F8F00BF00BFFEE7CB
:1049B0009DF8000000F05000834A10700720834AE1
:1049C000106009E081480068401E804A10609DF830
:1049D00000004006000E00909DF8000000F08000EE
:1049E0008028EFD079480068C0F10700042801D181
:1049F000012000E0002050B900BF502080F3118852
:104A0000BFF34F8FBFF36F8F00BF00BFFEE76F484C
:104A1000006800026D4A10601046008800F4E060F3
:104A20001060684A0198107064482030006840F4B3
:104A300070006249203108600846006840F070400C
:104A40000860FFF758FF002059490860FBF714FC85
:104A50005F48006840F040405D490860FBF7F8FBA4
:104A600000201CBD52480068B0F57A7F01D10120BA
:104A700000E0002050B900BF502080F31188BFF340
:104A80004F8FBFF36F8F00BF00BFFEE7704700BFBF
:104A9000502080F31188BFF34F8FBFF36F8F00BF9B
:104AA00043480068401C42490860084600680128E5
:104AB00013D14248001D0068C0B208B9012000E0CF
:104AC000002050B900BF502080F31188BFF34F8FF2
:104AD000BFF36F8F00BF00BFFEE770473448006828
:104AE00050B900BF502080F31188BFF34F8FBFF340
:104AF0006F8F00BF00BFFEE72D480068401E2C49A5
:104B000008600846006820B9002080F3118800BFC3
:104B100000BF704710B500BF502080F31188BFF36D
:104B20004F8FBFF36F8F00BFFDF782FF20B14FF0B3
:104B300080502249091D086000BF002080F31188C1
:104B400000BF10BD70B5FBF7CFFB0446102C16D389
:104B500004F1E02090F8F0531B480078854201DB17
:104B6000012000E0002050B900BF502080F31188E0
:104B7000BFF34F8FBFF36F8F00BF00BFFEE70F483B
:104B80000C30006800F4E06010490968884201D8E0
:104B9000012000E0002050B900BF502080F31188B0
:104BA000BFF34F8FBFF36F8F00BF00BFFEE770BD35
:104BB000D0000020954800083800002000ED00E0FB
:104BC00071C20F4100E400E0D4000020D8000020B2
:104BD00034EF00E0704700000FB4044910B503AA99
:104BE000029800F0F1F810BC5DF814FB60000020A2
:104BF0002DE9F0410E460446002020622046E1687F
:104C0000884730B3252805D0D4E901219047206A90
:104C1000401CF2E7E168204600278847050018D0CD
:104C2000A5F14100192802D820354FF4006732461B
:104C3000294620462760FBF7E1FA40B1012804D05D
:104C4000F61D26F007060836D8E7361DD6E72846B3
:104C5000DAE7206ABDE8F08170B50C460546012A06
:104C600005D02878800600D5EA69002302E00123F8
:104C700005E05B1C934202D2E05C0028F9D1A869F0
:104C8000E618C01AA861286A184428622846AFF3BB
:104C9000008004E0D5E9012114F8010B9047B442EB
:104CA000F8D32846AFF3008070BD032A40F230806D
:104CB00010F0030C00F0158011F8013BBCF1020F5D
:104CC000624498BF11F801CB00F8013B38BF11F8DE
:104CD000013BA2F1040298BF00F801CB38BF00F8F5
:104CE000013B11F0030300F08180083AC0F0088016
:104CF00051F8043B083A51F804CBA0E80810F5E756
:104D0000121D5CBF51F8043B40F8043BAFF3008038
:104D1000D20724BF11F8013B11F801CB48BF11F8AD
:104D2000012B24BF00F8013B00F801CB48BF00F87D
:104D3000012B704702F0FF0343EA032242EA0242DA
:104D400000F088B84FF0000200B51346944696462E
:104D5000203922BFA0E80C50A0E80C50B1F120018E
:104D6000BFF4F7AF090728BFA0E80C5048BF0CC03C
:104D70005DF804EB890028BF40F8042B08BF70479A
:104D800048BF20F8022B11F0804F18BF00F8012B0C
:104D90007047704770477047704710B5436913B14B
:104DA000AFF3008001E0FFF757FF012010BD12783C
:104DB00000F124010A7000224A700122EDE7116817
:104DC0004FF0FF32E9E70000074B70B50D467B441A
:104DD00000F065F80446284600F074F810B14FF072
:104DE000FF3070BD204670BD7BC8FFFF10B5203A74
:104DF000C0F00B80B1E81850203AA0E81850B1E894
:104E00001850A0E81850BFF4F5AF5FEA027C24BF49
:104E1000B1E81850A0E8185044BF18C918C0BDE840
:104E200010405FEA827C24BF51F8043B40F8043B09
:104E300008BF7047D20728BF31F8023B48BF11F8BE
:104E4000012B28BF20F8023B48BF00F8012B704718
:104E50004FF000020429C0F0128010F0030C3FF460
:104E600073AFCCF1040CBCF1020F18BF00F8012B9A
:104E7000A8BF20F8022BA1EB0C01FFF765BF5FEA8A
:104E8000C17C24BF00F8012B00F8012B48BF00F8BB
:104E9000012B704701694A1C02610878704700B510
:104EA0008FB0CDE901310021059105497944CDE963
:104EB000031011466846FFF79BFE0FB000BD0000CF
:104EC000E5FFFFFF007B00F080007047754600F0B3
:104ED00029F8AE4605006946534620F0070085468E
:104EE00018B020B5FBF78AFCBDE820404FF0000663
:104EF0004FF000074FF000084FF0000B21F00701C2
:104F0000AC46ACE8C009ACE8C009ACE8C009ACE804
:104F1000C0098D4670470446AFF300802046FBF77A
:104F200081F9000000487047D42E01204FF04070F6
:104F3000E1EE100A70470000584F00080000002002
:104F4000DC000000C401000834500008DC00002030
:104F50005C340100E00100080000000000000000D7
:104F60000000000000000000000000000000000041
:104F70005245434549564552205175657565206631
:104F8000726F6D206B6579207461736B2100000076
:104F9000007A030A00000000000000000102030480
:104FA00006070809010000000001020304010203D2
:104FB00004060708090000000000000000000000CF
:104FC00000000000000000000000000000000000E1
:104FD00000000000000000000000000000000000D1
:104FE00000000000000000000000000000000000C1
:104FF00000000000000000000000000000000000B1
:1050000000000000000000000000000000000000A0
:105010000000000000000000000000000000000090
:105020000000000000000000AAAAAAAA00000000D8
:04503000000000007C
:040000050800018965
:00000001FF
